:020000040800F2
:1000000000000220D53500081D0C00081F0C000858
:10001000210C0008230C0008250C0008000000003B
:10002000000000000000000000000000270C000895
:10003000290C0008000000002B0C00082D0C000803
:100040002536000825360008253600082536000824
:100050002536000825360008253600082536000814
:100060002536000825360008253600082536000804
:1000700025360008253600082536000825360008F4
:1000800025360008253600082536000825360008E4
:1000900025360008253600082536000825360008D4
:1000A00025360008253600082536000825360008C4
:1000B000350C0008450C00082536000825360008D8
:1000C00025360008253600082536000825360008A4
:1000D0002536000825360008253600082536000894
:1000E00025360008550C000825360008253600087E
:1000F0002536000825360008253600082536000874
:100100002536000825360008253600082536000863
:100110002536000825360008253600082536000853
:100120002536000825360008253600082536000843
:1001300025360008000000000000000025360008F9
:100140002536000825360008253600082536000823
:100150002536000825360008253600082536000813
:100160002536000825360008253600082536000803
:100170002536000825360008253600080000000056
:10018000000000002536000800000000000000000C
:100190002536000800000000000000002536000899
:1001A00000000000000000000000000025360008EC
:1001B00025360008253600082536000825360008B3
:0401C00025360008D8
:1001D00001F0FF01102A2BDB10F0070F08D010F8F8
:1001E000013B013A8B422DD010F0070F42B3F6D1FC
:1001F000F0B441EA012141EA014122F007047FF015
:1002000000070023F0E80256083C85EA010586EA6B
:10021000010685FA47F5A3FA87F586FA47F6A5FAA7
:1002200087F68EB9EED1F0BC01F0FF0102F00702B3
:1002300032B110F8013B013A83EA010313B1F8D15E
:100240000020704701387047002D06BF354603383F
:10025000073815F0010F07D1013015F4807F02BF78
:10026000013015F4C03F0130F0BC0138704700BFC9
:1002700053B94AB9002908BF00281CBF4FF0FF310D
:100280004FF0FF3000F00CB8ADF1080C6DE904CE72
:1002900003F070FEDDF804E0DDE9022304B07047EE
:1002A000704700BF10B5054C237833B9044B13B128
:1002B0000448AFF300800123237010BD5C000020D0
:1002C000000000003042000808B5034B1BB1034991
:1002D0000348AFF3008008BD00000000600000206C
:1002E0003042000870B58AB005AD0024059406942C
:1002F00007940894099401942B4B1A6B42F0040262
:100300001A631A6B02F004020192019A02941A6BAA
:1003100042F080021A631A6B02F080020292029A83
:1003200003941A6B42F001021A631A6B02F0010285
:100330000392039A04941A6B42F002021A631B6B35
:1003400003F002030493049B184E224620213046FA
:1003500001F043FD4FF4005305934FF4041306934B
:1003600007942946124801F041FC202305930123FC
:100370000693079408942946304601F037FC302351
:10038000059306940223079306F5806629463046B6
:1003900001F02CFC4023059306940794294630462F
:1003A00001F024FC0AB070BD003802400000024099
:1003B0000008024008B50368B3F1804F00D008BDC3
:1003C00000F006FC064B1B881BB1013B044A13805E
:1003D000F5E7044B01221A70014BC8221A80EEE7A0
:1003E000000000207800002008B50268034B9A4204
:1003F00000D008BD00F09AFAFBE700BF00040040FF
:1004000072B6FEE708B50A480A4B03604FF4E133C1
:10041000436000238360C36003610C2242618361F7
:10042000C36100F0B9FD00B908BDFFF7E9FF00BFE7
:10043000940000200044004008B50A480A4B0360BD
:100440000A4B436000238360C3604FF48042026123
:1004500043618361C361036201F068FF00B908BDB5
:10046000FFF7CEFF8C01002000540040A086010061
:1004700010B590B000240B940C940D940E940F942E
:100480000A9428222146684603F0F0F82648274BB4
:10049000036044607F238360FF23C3600461446181
:1004A000846102F05DF9002836D100228DF82C20FD
:1004B0008DF82D208DF82E200E920F920BA91A4840
:1004C00002F0A8F950BB01238DF828308DF82930AF
:1004D0008DF82A3000228DF82B200AA9124802F04C
:1004E000F9F9E8B900228DF800208DF801208DF887
:1004F0000220019203920492059206920792012330
:100500008DF820304FF4807309936946064802F055
:100510002FFA38B910B010BDFFF772FFFFF770FF68
:10052000FFF76EFFFFF76CFF6C0100200028004012
:1005300000B587B0002302930393049305930093BF
:10054000019315484FF08042026040F23F624260E2
:10055000836040F2F312C26003618023836102F082
:1005600027FD90B94FF48053029302A90A4802F084
:1005700028FE60B90023009301936946064802F003
:10058000E1FF30B907B05DF804FBFFF739FFFFF773
:1005900037FFFFF735FF00BF2401002000B58BB007
:1005A00000230693079308930993049305930093FC
:1005B0000193029303931D481D4A02605322426037
:1005C00083604FF6FF72C2600361836102F0F0FC4A
:1005D00010BB4FF48053069306A9144802F0F1FDB6
:1005E000E0B9124802F010FDD0B90023049305933E
:1005F00004A90E4802F0A6FFA0B90223009301232C
:1006000001930022029203926946084802F066FDB7
:1006100050B90BB05DF804FBFFF7F2FEFFF7F0FEF8
:10062000FFF7EEFEFFF7ECFEFFF7EAFEDC0000202E
:100630000004004010B594B007AC342200212046DD
:1006400003F014F800230293039304930593069395
:100650000093204A116C41F080511164126C02F039
:1006600080520092009A01931B490A6822F440428A
:1006700042F480420A600A6802F440420192019A00
:1006800006220792012209920A9210210B9102225E
:100690000D920E930F914FF4A873109304231193AE
:1006A00012921392204601F07FF878B90F2302933B
:1006B00002210391002304934FF480520592069384
:1006C00002A800F099FC18B914B010BDFFF798FE0D
:1006D000FFF796FE003802400070004000B59DB064
:1006E00001F024FCFFF7A6FFFFF7FCFDFFF78AFEF1
:1006F000FFF7A2FEFFF7BCFEFFF71AFFFFF74EFF62
:1007000000F050F900F0AAF9374802F029F837480C
:1007100002F0D8FA00F084F80021084600F0D6F97B
:10072000334800F090F90021012000F0CFF9314862
:1007300000F089F90021022000F0C8F92E4800F0ED
:1007400082F94BE000F0B2F82C4B00221A702C4CCE
:10075000254D00222146284602F0EFF900222949C2
:10076000284602F010FA0621002000F0AFF9A37825
:1007700003AD0093637822782349284602F054FFA2
:10078000284600F060F90621012000F09FF91F4B78
:100790001B881F4CA4FB0312D20802EB820041000D
:1007A0005B1A9BB21B49284602F03EFF284600F028
:1007B0004AF90A21022000F089F9174B1B88A4FB93
:1007C0000312D20802EB820041005B1A9BB213496C
:1007D000284602F029FF284600F035F9074B1B7820
:1007E000002BAFD1B3E700BF6C0100202401002033
:1007F0004842000850420008584200087800002093
:10080000800000207C00002064420008E2010020FB
:10081000CDCCCCCC74420008E00100207C42000822
:1008200008B5044802F04EFA4FF47A7001F0AAFBC2
:1008300008BD00BFDC000020F0B587B001A900248E
:1008400001944C608C60CC600C61402601960127BD
:1008500002970397134D284601F0C8F92246314606
:10086000284601F0BAFA122001F08CFB3A463146D4
:10087000284601F0B2FA009402E0009B0133009395
:10088000009B632BF9DD022302930122039205935F
:1008900001A9044801F0AAF90021034802F020FD53
:1008A00007B0F0BD00000240DC00002008B5064B98
:1008B000FE221A70054B00221A601A71044B0122A5
:1008C0001A70FFF7B9FF08BDE5010020E80100201C
:1008D000E401002000B5124A107892F801E000EB24
:1008E0000E03917851FA83F392F803C05CFA83F314
:1008F000DBB212799A4201D05DF804FB002BFBD0E9
:1009000000EB800043009E44064BA3F800E001EB9F
:1009100081014B009C44044BA3F800C0ECE700BFEE
:10092000E8010020E2010020E0010020194B1B78C3
:10093000012B00D0704710B50446002102F005FAE3
:10094000236800225A62144B93F90020D3B2272B5C
:100950000DD81146002A11DBC910104C625C520000
:10096000D2B26254642802D942F0010262540133C7
:100970005BB2094A1370272B02DC10BDD11DEBE7D7
:100980000021074802F078FDFFF7A4FF014B002289
:100990001A70F2E7E4010020E5010020E8010020E0
:1009A000DC00002008B500F01BF808BD08B50A48B7
:1009B0000A4B03604FF4E133436000238360C3605C
:1009C00003610C2242618361C36100F0E5FA00B962
:1009D00008BDFFF715FDFBE7940000200044004030
:1009E00008B5FFF7E3FF08BD10B541EA00114CB2AE
:1009F00044F00C01C9B2272000F07CF8012001F07E
:100A0000C1FA24F0040141F0080101F0FB012720A4
:100A100000F070F8012001F0B5FA10BD38B50446B9
:100A20000D460009FFF7E0FF294604F00F00FFF72D
:100A3000DBFF38BD08B500210120FFF7EFFF0220E2
:100A400001F0A0FA08BD10B5044603E0013401210D
:100A5000FFF7E4FF20780028F8D110BD08B5322058
:100A600001F090FA00210320FFF7BEFF052001F0FE
:100A700089FA00210320FFF7B7FF012001F082FA75
:100A800000210320FFF7B0FF012001F07BFA0021D5
:100A90000220FFF7A9FF012001F074FA00212820AD
:100AA000FFF7BCFF012001F06DFA00210C20FFF7D9
:100AB000B5FF012001F066FA00210620FFF7AEFF26
:100AC000012001F05FFAFFF7B5FF08BD08B5032864
:100AD0000BD8DFE800F0030D020B1420084460F08F
:100AE0007F000021C0B2FFF799FF08BD5420F5E751
:100AF0004020F3E700B585B08DF80F104FF0FF33BD
:100B0000009301230DF10F0200FA03F1024801F0F6
:100B1000EBFC05B05DF804FB8C01002038B5144CEB
:100B2000144D00222146284602F007F800221249FF
:100B3000284602F028F863780133DBB263703B2B60
:100B40000FD90023637022780132A3F1553303F1EA
:100B5000004383FB02039B1003EB4303D800131AEB
:100B60002370034800238370034900F047F838BD21
:100B7000F40100206C010020F001002038B5114C78
:100B8000114D00222146284601F0D7FF00220F49CF
:100B9000284601F0F8FF637883B93B22627023781E
:100BA00053B1013BDBB2074A137006480023837040
:100BB000064900F023F838BD1723F4E7013B014A4A
:100BC0005370F2E7F40100206C010020F0010020D6
:100BD00008B52021084801F0F9F8012806D01021B5
:100BE000054801F0F3F8012803D008BDFFF796FF90
:100BF000F5E7FFF7C3FFF8E70004024038B50C46FD
:100C0000054D00220146284601F004FE002221463F
:100C1000284601F05FFE38BD6C010020FEE7FEE7CC
:100C2000FEE7FEE7FEE770477047704708B501F042
:100C300097F908BD08B5024802F0A3F808BD00BF47
:100C40002401002008B5024802F09BF808BD00BF4F
:100C5000DC00002008B5024801F002FD08BD00BF1D
:100C60006C01002000B583B0002100910C4B5A6C40
:100C700042F480425A645A6C02F480420092009A14
:100C800001911A6C42F080521A641B6C03F080537D
:100C90000193019B072001F0E9F803B05DF804FB24
:100CA0000038024030B589B00023039304930593C4
:100CB000069307930268144B9A4201D009B030BDE5
:100CC00000250195114C236B43F002032363236B32
:100CD00003F002030193019B4FF44073039312232B
:100CE0000493032306930423079303A9084800F001
:100CF0007DFF0295236C43F400132364236C03F4FB
:100D000000130293029BD9E70054004000380240D0
:100D10000004024010B598B004465C22002101A8EE
:100D200002F0A4FC22680F4B9A4201D018B010BD0B
:100D3000202301934FF48073119301A800F032FA3D
:100D400060B9094B0122C3F83C2E0022114629202C
:100D500001F09EF8292001F0ABF8E7E7FFF750FB20
:100D6000EFE700BF002800400000474210B588B000
:100D70000023039304930593069307930368B3F149
:100D8000804F04D0214A934216D008B010BD0021F4
:100D9000009103F50E331A6C42F001021A641B6CC9
:100DA00003F001030093009B0A461C2001F070F839
:100DB0001C2001F07DF8E8E700240194144B1A6C24
:100DC00042F002021A641A6C02F002020192019AC5
:100DD00002941A6B42F001021A631B6B03F00103C9
:100DE0000293029B40230393022304930122059262
:100DF000079303A9074800F0F9FE224621461D206B
:100E000001F046F81D2001F053F8BEE70004004051
:100E1000003802400000024000B589B0002303936F
:100E200004930593069307930268154B9A4202D0E8
:100E300009B05DF804FB0021019103F5FA331A6C47
:100E400042F400321A641A6C02F400320192019AE0
:100E500002911A6B42F001021A631B6B03F001034B
:100E60000293029B1C230393022304930323069300
:100E70000723079303A9034800F0B8FED8E700BF93
:100E8000004400400000024010B5044602681369A7
:100E900023F44053C1680B431361836802691A430A
:100EA00043691A43C3691A430168CB6823F41643A4
:100EB00023F00C031343CB600268536923F440739F
:100EC00081690B4353610368314A934206D002F5AE
:100ED0008062934202D000F045F901E000F052F93F
:100EE000E369B3F5004F29D00021031849411B18CD
:100EF00041F10001C90041EA5371DB001818636831
:100F00004FEA83024FEA937341F10001FFF7B0F912
:100F1000204AA2FB00314909642303FB11031B0192
:100F20003233A2FB03235B0903F0F00202EB011250
:100F300003F00F03216813448B6010BD00230218D7
:100F400043EB0301121841F10001C90041EA52715B
:100F5000D200101841F10001626892185B41FFF75E
:100F600087F90C4AA2FB00314909642303FB1103F2
:100F7000DB003233A2FB03235B095A0002F4F87250
:100F800002EB011203F00703216813448B60D4E7DE
:100F9000001001401F85EB5160B310B5044690F876
:100FA000413013B3242384F841302268D36823F4FA
:100FB0000053D3602046FFF767FF2268136923F4CC
:100FC000904313612268536923F02A035361226816
:100FD000D36843F40053D36000206064202384F876
:100FE000413084F84230606310BD80F84030FFF734
:100FF00013FFD7E701207047002800F09B8070B5F1
:101000000D4604464F4B1B6803F00F038B4208D27A
:10101000CBB24C4A1370136803F00F038B4240F0BD
:101020008B80236813F0020F17D013F0040F04D045
:10103000454A936843F4E0539360236813F0080F24
:1010400004D0414A936843F4604393603E4A9368F6
:1010500023F0F003A1680B439360236813F0010FA2
:1010600032D06368012B21D09A1E012A25D9364A35
:10107000126812F0020F61D033498A6822F003022D
:1010800013438B6000F078FF06462F4B9B6803F0FC
:101090000C036268B3EB820F16D000F06DFF801B6B
:1010A00041F288339842F0D9032042E0264A126880
:1010B00012F4003FE0D101203BE0234A126812F015
:1010C000007FD9D1012034E01E4B1B6803F00F03D1
:1010D000AB4207D9EAB21B4B1A701B6803F00F032F
:1010E000AB422DD1236813F0040F06D0164A936843
:1010F00023F4E053E1680B439360236813F0080F77
:1011000007D0114A936823F46043216943EAC1037D
:10111000936000F081FA0C4B9B68C3F303130B4AF6
:10112000D35CD8400A4B18600A4B186800F0D8FE10
:10113000002070BD012070470120FAE70120F8E788
:101140000120F6E7003C0240003802408C420008D3
:101150000800002004000020014B1868704700BF01
:101160000800002008B5FFF7F7FF044B9B68C3F3A6
:101170008223034AD35CD84008BD00BF0038024038
:101180008442000808B5FFF7E7FF044B9B68C3F3F0
:101190004233034AD35CD84008BD00BF0038024048
:1011A00084420008F0B583B00446066816F00106D4
:1011B0000DD0964AD2F88C3023F0C063816B0B437C
:1011C000C2F88C30836B002B00F09B8000262368D4
:1011D00013F0020F0BD08D4AD2F88C3023F0C0539D
:1011E000E16B0B43C2F88C30E36B03B90126256831
:1011F00015F004050FD0854AD2F88C3023F4401343
:10120000216B0B43C2F88C30236BB3F5801F7AD06F
:10121000002B7AD00025236813F0080F0ED07B4AEC
:10122000D2F88C3023F44003616B0B43C2F88C304E
:10123000636BB3F5800F6AD003B90125236813F0FF
:10124000200F66D1236813F0100F04D094F85820B3
:101250006F4BC3F8E021236813F0800F08D06B4A6E
:10126000D2F8943023F44003E16C0B43C2F894307D
:10127000236813F0400F08D0644AD2F8943023F06A
:101280008063A16C0B43C2F89430236813F4807F11
:101290000DD05E4AD2F8943023F00063616D0B43A9
:1012A000C2F89430636DB3F1006F00F09B80236847
:1012B00013F4007F08D0554AD2F8943023F08053BD
:1012C000616C0B43C2F89430236813F4806F0CD028
:1012D0004E4AD2F8943023F00053216D0B43C2F8EC
:1012E0009430236DB3F1005F7ED0002E7CD1236853
:1012F000B3F5006F78D0012D00F02581002003B0F8
:10130000F0BD012663E7012682E7012583E7012678
:1013100092E7002301933D4B1A6C42F080521A640D
:101320001B6C03F080530193019B3A4A136843F40A
:101330008073136000F020FE0746364B1B6813F4E1
:10134000807F06D100F018FEC01B0228F5D90320CB
:10135000D5E72E4B1B6F13F4407314D0226C02F4AC
:1013600040729A420FD0294B1A6F22F440722A49D8
:101370000120C1F8400E0020C1F8400E1A671B6F13
:1013800013F0010F12D1236C03F44072B2F5407FC9
:101390001DD01E4A936823F4F81393601B490B6F0A
:1013A000226CC2F30B0213430B674BE700F0E4FD22
:1013B0000746164B1B6F13F0020FE4D100F0DCFD63
:1013C000C01B41F288339842F3D9032097E70F49B5
:1013D0008A6822F4F81223F0704323F44073134315
:1013E0008B60DBE7012562E70B4B00229A6600F079
:1013F000C3FD0646054B1B6813F0006F0ED000F0CE
:10140000BBFD801B0228F5D9032078E70038024095
:10141000001047420070004000004742236813F06C
:10142000010F01D0A26B22B113F0020F15D0E36BB4
:101430009BB9774AD2F88400D2F884106368A66812
:1014400043EA861300F44030034301F070610B431C
:10145000616943EA0173C2F88430236813F0040F12
:1014600003D0226BB2F5801F06D013F0080F20D0F6
:10147000636BB3F5800F1CD1654AD2F88400D2F8B3
:1014800084106368A66843EA861300F4403003437F
:10149000206943EA006301F0E0410B43C2F8843065
:1014A000D2F88C3023F01F03A16A01390B43C2F834
:1014B0008C30236813F4806F03D0236DB3F1005F89
:1014C00028D0236813F4006F11D06368A26843EA40
:1014D0008213E2685208013A43EA0243226943EA6E
:1014E0000263626943EA0273494AC2F88430494B95
:1014F00001229A6600F040FD0646454B1B6813F03A
:10150000006F7FF4F8AE00F037FD801B0228F4D99D
:101510000320F4E63E48D0F88420C2F301420132B1
:10152000D0F884606368A16843EA8113E1684908E0
:10153000013943EA014343EA426306F0E0421343C0
:10154000C0F88430BDE7334B00221A6700F014FD69
:1015500005462F4B1B6813F0005F06D000F00CFD12
:10156000401B0228F5D90320C9E6236813F0040FB5
:1015700001D0226B22B113F0080F1AD0636BC3B9EC
:10158000234AD2F88810A369E06943EA801301F482
:1015900040310B43616A43EA0163C2F88830D2F8F4
:1015A0008C3023F4F853E16A013943EA0123C2F88D
:1015B0008C30236813F4807F03D0636DB3F1006F28
:1015C00011D0144B01221A6700F0D6FC0446104BD0
:1015D0001B6813F0005F18D100F0CEFC001B02283E
:1015E000F5D903208BE60A48D0F88810A369E26990
:1015F00043EA8213226A5208013A43EA024301F0A5
:1016000070621343C0F88830DBE7002077E600BF44
:10161000003802400000474208B5604B9B6803F069
:101620000C03082B06D00C2B5ED0042B40F0B480AA
:101630005B4833E0594B5A6802F03F025B6813F491
:10164000800F2CD0554B5868C0F388104FEA401CCF
:10165000BCEB000C6EEB0E0E4FEA8E1343EA9C635C
:101660004FEA8C11B1EB0C0163EB0E03DB0043EA94
:101670005173C90011EB000C43F100035902002320
:101680004FEA4C2041EADC51FEF7F2FD434B5B6828
:10169000C3F3014301335B00B0FBF3F008BD3F4BE4
:1016A0005868C0F388104FEA401CBCEB000C6EEB8E
:1016B0000E0E4FEA8E1343EA9C634FEA8C11B1EB96
:1016C0000C0163EB0E03DB0043EA5173C90011EB1D
:1016D000000C43F10003990200234FEA8C2041EAF9
:1016E0009C51FEF7C5FDD1E72C4B5A6802F03F0232
:1016F0005B6813F4800F2AD0284B5868C0F3881019
:101700004FEA401CBCEB000C6EEB0E0E4FEA8E1342
:1017100043EA9C634FEA8C11B1EB0C0163EB0E03BF
:10172000DB0043EA5173C90011EB000C43F10003E5
:10173000590200234FEA4C2041EADC51FEF798FDA4
:10174000164B5B68C3F30273B0FBF3F0A6E7134BD1
:101750005868C0F388104FEA401CBCEB000C6EEBDD
:101760000E0E4FEA8E1343EA9C634FEA8C11B1EBE5
:101770000C0163EB0E03DB0043EA5173C90011EB6C
:10178000000C43F10003990200234FEA8C2041EA48
:101790009C51FEF76DFDD3E702487FE70038024019
:1017A00000127A000024F400002800F0018270B5D5
:1017B00082B00446036813F0010F41D0994B9B6837
:1017C00003F00C03042B32D0964B9B6803F00C0300
:1017D000082B27D0934B9B6803F00C030C2B59D09C
:1017E0006368B3F5803F5BD0B3F5A02F5ED08D4B1F
:1017F0001A6822F480321A601A6822F480221A6071
:101800006368002B5CD000F0B7FB0546854B1B6876
:1018100013F4003F14D100F0AFFB401B6428F5D94E
:101820000320CCE17F4B5B6813F4800FD2D07D4B5B
:101830001B6813F4003F03D06368002B00F0BA81EB
:10184000236813F0020F60D0764B9B6813F00C0FE7
:101850004AD0744B9B6803F00C03082B3FD0714BAC
:101860009B6803F00C030C2B69D0E368002B75D048
:101870006D4B01221A6000F07FFB0546694B1B6827
:1018800013F0020F61D100F077FB401B0228F5D95D
:10189000032094E1634B5B6813F4800FA0D0C6E78C
:1018A000604A136843F480331360A9E75D4B1A68FC
:1018B00042F480221A601A6842F480321A609FE76C
:1018C00000F05AFB0546574B1B6813F4003FB7D096
:1018D00000F052FB401B6428F5D903206FE1514B07
:1018E0005B6813F4800FBAD14E4B1B6813F0020FE4
:1018F00003D0E368012B40F05F814A4A136823F06C
:10190000F803216943EAC1031360236813F0080F49
:1019100049D06369002B33D0434B0122C3F8802E9A
:1019200000F02AFB05463F4B5B6F13F0020F3AD1E4
:1019300000F022FB401B0228F5D903203FE1394B80
:101940005B6813F4800F90D1CEE7364A136823F01A
:10195000F803216943EAC1031360D6E7324B002242
:101960001A6000F009FB05462E4B1B6813F0020FAE
:10197000CBD000F001FB401B0228F5D903201EE16B
:10198000294B0022C3F8802E00F0F6FA0546254BBD
:101990005B6F13F0020F06D000F0EEFA401B022836
:1019A000F5D903200BE1236813F0040F76D01D4B0B
:1019B0001B6C13F0805F33D100230193194B1A6C19
:1019C00042F080521A641B6C03F080530193019B18
:1019D0000125164B1B6813F4807F29D0A368012BC7
:1019E0003AD0052B3ED00F4B1A6F22F001021A6736
:1019F0001A6F22F004021A67A368002B3CD000F093
:101A0000BBFA0646074B1B6F13F0020F45D100F0DF
:101A1000B3FA801B41F288339842F3D90320CEE019
:101A20000025D6E700380240000047420070004021
:101A30006B4A136843F48073136000F09DFA064606
:101A4000674B1B6813F4807FC8D100F095FA801BA8
:101A50000228F5D90320B2E0624A136F43F0010374
:101A60001367C9E75F4B1A6F42F004021A671A6FD7
:101A700042F001021A67BFE700F07EFA0646594BB2
:101A80001B6F13F0020F08D000F076FA801B41F2B2
:101A900088339842F3D9032091E0EDB9A369002B74
:101AA00000F08C804F4A926802F00C02082A54D051
:101AB000022B17D04C4B00221A6600F05DFA044648
:101AC000484B1B6813F0007F45D000F055FA001B0F
:101AD0000228F5D9032072E0424A136C23F08053A8
:101AE0001364DBE7404B00221A6600F045FA054616
:101AF0003C4B1B6813F0007F06D000F03DFA401B02
:101B00000228F5D903205AE0E369226A1343626A86
:101B100043EA8213A26A5208013A43EA0243E26AA4
:101B200043EA0263226B43EA02732E4A53602E4B50
:101B300001221A6600F020FA04462A4B1B6813F0B3
:101B4000007F06D100F018FA001B0228F5D9032007
:101B500035E0002033E0002031E0012B31D0214B73
:101B60005B6803F48001E26991422CD103F03F02EB
:101B7000216A8A4229D1616A47F6C0721A40B2EBE3
:101B8000811F24D103F44031A26A5208013AB1EB1B
:101B9000024F1ED103F07062E16AB2EB016F1AD1FD
:101BA00003F0E043226BB3EB027F16D1002006E086
:101BB00001207047012002E0012000E0002002B077
:101BC00070BD0120FBE70120F9E70120F7E70120C4
:101BD000F5E70120F3E70120F1E70120EFE700BF7F
:101BE00000700040003802400000474200230F2BE5
:101BF00000F2E38070B582B065E085684FEA430E7D
:101C0000032404FA0EF425EA0405CC6804FA0EF461
:101C10002C438460446824EA02044A68C2F3001238
:101C20009A40224342605CE0DC08083450F82420EB
:101C300003F00705AD004FF00F0E0EFA05FE22EA85
:101C40000E0E0A69AA4042EA0E0240F824205CE027
:101C5000062200E0002202FA0EF22A430234574D17
:101C600045F82420564A94686FEA0C0224EA0C05D1
:101C70004E6816F4801F01D04CEA0405504CA56054
:101C8000E46802EA04054E6816F4001F01D04CEA2D
:101C900004054B4CE560646802EA04054E6816F4DE
:101CA000003F01D04CEA0405454C656024682240A1
:101CB0004D6815F4803F01D04CEA0402404C22608C
:101CC00001330F2B77D801229A400C6804EA020CEA
:101CD00032EA0404F4D14C6804F00304013C012C02
:101CE0008BD94A6802F00302032A09D0C4685D0058
:101CF0000322AA4024EA02048A68AA402243C2605E
:101D00004A6802F00302022A8ED004684FEA430EAA
:101D1000032202FA0EF224EA02044A6802F00302E5
:101D200002FA0EF2224302604A6812F4403FC7D022
:101D300000220192234A546C44F480445464526C4F
:101D400002F480420192019A9C08A51C1B4A52F899
:101D5000255003F0030E4FEA8E0E0F2202FA0EF208
:101D600025EA0205184A90423FF474AF02F58062FA
:101D7000904216D002F58062904214D002F5806243
:101D8000904212D002F58062904210D002F580623B
:101D900090420ED002F5806290423FF459AF072284
:101DA00059E7012257E7022255E7032253E70422AD
:101DB00051E705224FE702B070BD7047003801407F
:101DC000003C014000380240000002400369194213
:101DD00001D001207047002070470AB1816170472F
:101DE0000904816170470000002807DB00F01F0232
:101DF000400901239340024A42F82030704700BF57
:101E000000E100E0002808DB0901C9B200F16040F0
:101E100000F5614080F80013704700F00F000901E1
:101E2000C9B2014B1954704714ED00E000B500F041
:101E30000700C0F1070CBCF1040F28BF4FF0040CE1
:101E4000031D062B0FD9C31E4FF0FF3E0EFA0CF0F8
:101E500021EA000199400EFA03FE22EA0E0241EA4D
:101E600002005DF804FB0023EEE70000074AD36898
:101E700023F4E0631B041B0C000200F4E060034346
:101E800043F0BF6343F40033D360704700ED00E0DC
:101E900010B50446054BD868C0F30220FFF7C6FF13
:101EA00001462046FFF7AEFF10BD00BF00ED00E089
:101EB00008B5FFF799FF08BD0138B0F1807F0BD25C
:101EC0004FF0E0235861054AF02182F823100020EA
:101ED000986107221A6170470120704700ED00E009
:101EE00010B504460E4B1A784FF47A73B3FBF2F335
:101EF0000C4A1068B0FBF3F0FFF7DEFF68B90F2C57
:101F000001D901200AE0002221464FF0FF30FFF7FF
:101F1000BFFF054B1C60002000E0012010BD00BF8A
:101F200002000020080000200400002008B50B4B30
:101F30001A6842F400721A601A6842F480621A60E9
:101F40001A6842F480721A600320FFF78FFF0020A6
:101F5000FFF7C6FFFEF786FE002008BD003C0240EA
:101F6000034A1168034B1B780B441360704700BF92
:101F70000802002002000020014B1868704700BFD3
:101F80000802002038B50446FFF7F6FF0546B4F115
:101F9000FF3F02D0044B1B781C44FFF7EDFF401BB2
:101FA000A042FAD338BD00BF02000020034AD2F895
:101FB000883043F47003C2F88830704700ED00E0C9
:101FC00010B503460C4A0D490D48006840B10C4855
:101FD00000680344521A934206D8094A136010BDA0
:101FE0000748084C0460F2E701F048FB0C2303604B
:101FF0004FF0FF30F3E700BF0000022000040000B4
:102000000C0200205803002003685A6912F4806F04
:1020100001D1002070476FF480625A61002303638E
:10202000202280F83D2080F83E30026C42F004020D
:10203000026480F83C30012070472DE9F0410646EB
:102040000C46174698463BE0FFF796FF069BC01AE2
:10205000404502D8B8F1000F32D1012D18D03368B5
:102060009B6924EA03039BB2B3FA83F35B099F42A3
:1020700026D100233363202286F83D2086F83E30A7
:10208000326C42F02002326486F83C30012027E0B6
:1020900033685B6924EA03039BB2B3FA83F35B09F9
:1020A000E5E733685B6924EA030C1FFA8CFCBCFA91
:1020B0008CFC4FEA5C1C674511D1B8F1FF3FC3D1DE
:1020C000C4F30745012DECD033689B6924EA030C67
:1020D0001FFA8CFCBCFA8CFC4FEA5C1CEBE700207E
:1020E000BDE8F0812DE9F84305460E469046994635
:1020F00053E01A6842F400721A602B686FF4806231
:102100005A6100232B63202285F83D2085F83E305C
:102110002A6C42F004022A6485F83C3001204AE02F
:10212000FFF72AFFA0EB0900404502D8B8F1000FE5
:1021300033D1012F17D02B689B6926EA03039BB28A
:10214000003B18BF012343B300232B63202285F8F3
:102150003D2085F83E302A6C42F020022A6485F842
:102160003C30012027E02B685B6926EA03039BB221
:10217000003B18BF0123E6E72B689C6926EA0404AC
:10218000A4B2003C18BF0124A4B12B685A6912F410
:10219000806FAED1B8F1FF3FC2D1C6F30747012F20
:1021A000EAD12B685C6926EA0404A4B2003C18BF9B
:1021B0000124E9E70020BDE8F8830000F0B583B012
:1021C00004460D4616461F46C36A082B0DD0012B48
:1021D0000BD013F5803F08D0036B122B0AD1026895
:1021E000136843F48073136004E02268136843F4B7
:1021F000807313600097334600224FF00111204690
:10220000FFF71BFF80B92369B3F5804F16D1236810
:1022100005F0FE051D613B46324613492046FFF797
:1022200061FFF8B903B0F0BD23681B6813F4807F29
:1022300002D04FF4007323640320F3E7EB1122680C
:1022400003F0060343F0F00313613B4632460749AF
:102250002046FFF747FF18B92368EDB21D61DAE7A2
:102260000120DFE70120DDE7020001000800010096
:1022700070B504460D46164623685B6913F0800F5F
:1022800021D12046FFF7C0FEF8B9B5F1FF3FF3D0EA
:10229000FFF772FE801BA84201D8002DECD1236805
:1022A0005B6913F0800FE7D100232363202284F8B9
:1022B0003D2084F83E30226C42F02002226484F8F3
:1022C0003C30012000E0002070BD0120FCE770B52B
:1022D00004460D46164623685B6913F0040F21D1AE
:1022E0002046FFF791FEF8B9B5F1FF3FF3D0FFF7B5
:1022F00043FE801BA84201D8002DECD123685B6906
:1023000013F0040FE7D100232363202284F83D203B
:1023100084F83E30226C42F02002226484F83C3083
:10232000012000E0002070BD0120FCE7002800F043
:10233000CC8070B5044690F83D30002B77D0242334
:1023400084F83D302268136823F00103136022688B
:10235000136843F4004313602268136823F40043B6
:102360001360FEF7FFFE62685A4B9A4264D85A4BDC
:1023700098428CBF00230123002B40F0A8805749CE
:10238000A1FB00318B0C25686A6822F03F0242EA0B
:1023900091426A6021680A6A22F03F0266684D4DE8
:1023A000AE424FD8013313430B622168CA6922F44D
:1023B0004F4222F0FF026568464B9D424CD8431EB7
:1023C0006D00B3FBF5F3013340F6FC70034278D0A7
:1023D000C3F30B031A43CA6121680B6823F0C003DF
:1023E000E269206A024313430B6021688B6823F47F
:1023F000034323F0FF032269E068024313438B6029
:102400002168CB6823F0FF036269A069024313438C
:10241000CB602268136843F001031360002020643E
:10242000202384F83D30206384F83E0070BD80F89E
:102430003C30FEF737FC82E7294B98428CBF0023E3
:10244000012399E74FF4967505FB03F3254DA5FB92
:1024500003539B090133A6E7A668BEB9431E05EBEB
:10246000450CB3FBFCF30133C3F30B03B3FA83F363
:102470005B0943BBC6B9431E05EB4505B3FBF5F34A
:102480000133C3F30B0343F40043A3E7431E05EBFF
:10249000850C0CEB8C0CB3FBFCF30133C3F30B0387
:1024A000B3FA83F35B09E4E7431E05EB850505EB0F
:1024B0008505B3FBF5F30133C3F30B0343F440434A
:1024C00088E7042386E7012384E701207047012081
:1024D000ACE700BFA08601007F841E0083DE1B43A3
:1024E000FF083D00D34D62102DE9F04385B004464E
:1024F0000F46904699460C9EFFF73EFD94F83D101E
:10250000202904D00227384605B0BDE8F0830546EF
:102510000090192301224F492046FFF78EFD002825
:1025200040F0928094F83C30012B00F08F80012322
:1025300084F83C3023681A6812F0010F03D11A683E
:1025400042F001021A602268136823F400631360EA
:10255000212384F83D30102384F83E300023236487
:10256000C4F82480A4F82A90638D23853A4BE36253
:102570002B46324639462046FFF720FE0746002804
:1025800066D10023039323685A6903929B690393DE
:10259000039B11E0236C042B01D00127B3E72268D1
:1025A000136843F400731360F7E72A463146204668
:1025B000FFF78DFE00282ED1238D002B36D02A4622
:1025C00031462046FFF754FE0028E3D1626A2368B3
:1025D00012781A61606A431C6362618D89B20139A5
:1025E00089B26185238D013B9BB2238522685169A5
:1025F00011F0040FD9D0002BD7D043781361636A50
:1026000001336362638D9BB2013B9BB26385238D73
:10261000013B2385C9E7236C042B01D0012772E716
:102620002268136843F400731360F7E722681368A5
:1026300043F400731360202384F83D30002384F8B2
:102640003E3084F83C305EE702275CE702275AE719
:10265000012758E7020010000000FFFF704700004C
:1026600010B50446144B4FF400325A6103689A685F
:1026700012F4805F03D0DA6812F4807F0BD12368F4
:102680009A6812F4005F03D0DA6812F4007F0AD16E
:102690000123637710BDDA68D2B262F4C072DA60E7
:1026A000FFF7DCFFEBE7DA68D2B262F42072DA609F
:1026B000204600F086FAEBE7003C014038B50446BE
:1026C00003680A4ADA60FFF757FC05462368DB68AF
:1026D00013F0200F07D1FFF74FFC401BB0F57A7FB6
:1026E000F4D9032000E0002038BD00BF5F7F010067
:1026F00070B50368DA6812F0400F02D00025284652
:1027000070BD0446DA6842F08002DA60FFF734FCFC
:10271000064600252368DB6813F0400FEFD1002D3B
:10272000EDD1FFF729FC831BB3F57A7FF2D904239F
:1027300063770125EEE70268D36823F08003D36056
:1027400003689B6813F0200F01D00020704710B57C
:102750000446FFF7B3FF10B104236377012010BDD7
:1027600000284AD010B50446437F53B10223637753
:102770002368DA6812F0100F07D000200123637776
:1027800010BD0377FEF7C6FAF0E7CA225A62236843
:1027900053225A622046FFF7ABFF28B12368FF227D
:1027A0005A620028ECD1E9E72268936823F4E00339
:1027B00023F04003936021688A68636820690343BB
:1027C0006069034313438B602368E2681A612268DF
:1027D0001369A16843EA014313612046FFF7ABFF89
:1027E0000028DBD12268136C23F480231364226851
:1027F000136CA1690B431364D0E7012070470023D9
:1028000002E001330A38C0B20928FAD81B01DBB252
:1028100018437047037F012B5AD070B504460E460B
:10282000012303770223437732BB03689B6813F0CD
:10283000400F01D10023CB703078FFF7E0FF050493
:102840007078FFF7DCFF45EA0025B078FFF7D7FF87
:102850000543F37845EA83552368CA225A62236800
:1028600053225A622046FFF743FFB8B12368FF2284
:102870005A620023237770BD03689B6813F0400FF2
:1028800001D10023CB70337875782D0245EA0345DA
:10289000B3781D43F37845EA8355DDE7236805F0F7
:1028A0007F3525F0FE451D602268936823F4802360
:1028B000936021688B68F2683069024313438B6030
:1028C0002046FFF738FF0028D0D101236377CDE7FA
:1028D00002207047037F012B48D070B504460E4696
:1028E0000123037702234377CAB1CB784D782D02B9
:1028F00045EA03458B781D430B7845EA4335236849
:10290000CA225A62236853225A622046FFF7F0FE19
:10291000F0B12368FF225A620023237770BD4B7801
:1029200013F0100F03D003F0EF030A334B70F0786D
:10293000FFF765FF05047078FFF761FF45EA0025A2
:10294000B078FFF75CFF0543337845EA4335D6E7B7
:10295000236825F07F4525F0C0055D602046FFF720
:10296000EAFE0028D5D101236377D2E70220704721
:1029700070B582B00D46694B1B686949A1FB031312
:10298000DB0A4FF47A7101FB03F30193037F012B00
:1029900000F0C28004460123037702234377002A14
:1029A0006DD103689B6813F0400F01D10023EB70D9
:1029B0002878FFF724FF06046878FFF720FF46EA2F
:1029C0000026A878FFF71BFF0643EB7846EA8356FC
:1029D00095F82000FFF713FF46EA0062EB691A43FF
:1029E0006B691A436868AB6918432368CA21596246
:1029F0002368532159626B6AB3F5807F59D02168EF
:102A00008B6823F400738B602168CB68DBB263F4BE
:102A10002073CB60414B1B684149A1FB0313DB0AC8
:102A20004FF47A7101FB03F30193019B013B019386
:102A3000019B002B68D02368D96811F0020FF4D0F5
:102A40001A62236898642268936843F40073936061
:102A50002268936843F400539360324B1A6842F43F
:102A600000321A609A6842F400329A602368FF22AA
:102A70005A62012363770020207702B070BD03689B
:102A80009B6813F0400F01D10023EB702B786A781C
:102A9000120242EA0342AB781A43EB7842EA8352CD
:102AA00095F8203042EA0362EB691A436B691A43D6
:102AB00098E721688B6823F480738B602168CB686A
:102AC000DBB263F4C073CB60019B013B0193019BBC
:102AD00093B12368D96811F0010FF5D0DA6123684A
:102AE00058642268936843F4807393602268936803
:102AF00043F480539360B0E72368FF225A620320B7
:102B0000607700232377B8E72368FF225A62032007
:102B1000607700232377B0E70220AEE708000020AB
:102B2000D34D6210003C0140030903EB830300F026
:102B30000F0000EB4300C0B2704770B503689B6A9A
:102B40004B6003681B69C3F30E038B6003681B684B
:102B5000C3F305400870C3F306264E7003F07F05EB
:102B60008D70C3F38053CB705AB90C46FFF7DCFF6E
:102B700020703046FFF7D8FF60702846FFF7D4FF7B
:102B8000A070002070BD70B503685B68C3F3074098
:102B9000C870C3F304264E7003F03F058D70C3F375
:102BA00042330B705AB90C46FFF7BEFFE070304657
:102BB000FFF7BAFF60702846FFF7B6FFA07000204D
:102BC00070BD704710B4036A046A24F00104046203
:102BD000846924F0F00C4CEA021223F00A030B4340
:102BE000826103625DF8044B704730B4056A046A81
:102BF00024F010040462846924F4407C4CEA022C22
:102C00002CF4704C1B039BB243EA0C0325F0A00587
:102C1000090101F0A00129438361016230BC7047C2
:102C200010B4036A046A24F010040462846924F472
:102C3000704C4CEA023223F0A00343EA0113826194
:102C400003625DF8044B704730B4056A046A24F4EB
:102C500080740462C46924F0030C4CEA020C2CF06A
:102C6000F00C1B01DBB243EA0C0325F420650902DA
:102C700001F420612943C361016230BC704730B464
:102C8000056A046A24F480540462C46924F4407C14
:102C90004CEA022C2CF4704C1B039BB243EA0C034D
:102CA00025F42045090301F420412943C361016251
:102CB00030BC7047836823F070030B4343F0070375
:102CC0008360704790F83D30012B37D1022380F8A4
:102CD0003D300268D36843F00103D3600368194AAA
:102CE000934220D0B3F1804F1DD0A2F57C42934295
:102CF00019D002F58062934215D002F580629342AA
:102D000011D002F5784293420DD002F570529342F1
:102D100009D0A2F59432934205D01A6842F001021C
:102D20001A60002070479A6802F00702062A07D04E
:102D30001A6842F001021A600020704701207047B3
:102D4000002070470000014070470C2914D8DFE8CC
:102D500001F0071313130A1313130D1313131000A9
:102D60000368586B70470368986B70470368D86BAB
:102D700070470368186C70470020704770477047B1
:102D8000704770B504460368DE681D6915F0020FD0
:102D900010D016F0020F0DD06FF002021A6101235D
:102DA000037703689B6913F0030F5ED0FDF71CFBEC
:102DB0000023237715F0040F12D016F0040F0FD064
:102DC00023686FF004021A610223237723689B694A
:102DD00013F4407F4FD02046FDF706FB00232377F6
:102DE00015F0080F12D016F0080F0FD023686FF0FF
:102DF00008021A61042323772368DB6913F0030FA9
:102E000040D02046FDF7F0FA0023237715F0100F8D
:102E100012D016F0100F0FD023686FF010021A6155
:102E2000082323772368DB6913F4407F31D02046E1
:102E3000FDF7DAFA0023237715F0010F02D016F020
:102E4000010F2DD115F0800F02D016F0800F2FD179
:102E500015F0400F02D016F0400F31D115F0200FC1
:102E600002D016F0200F33D170BDFFF787FF204648
:102E7000FFF785FF9CE72046FFF780FF2046FFF71E
:102E80007EFFABE72046FFF779FF2046FFF777FF8D
:102E9000BAE72046FFF772FF2046FFF770FFC9E749
:102EA00023686FF001021A612046FDF783FAC9E733
:102EB00023686FF080021A61204600F08AFBC7E7A2
:102EC00023686FF040021A612046FFF759FFC5E7FB
:102ED00023686FF020021A61204600F079FBC3E7F7
:102EE0000368324A904212D0B0F1804F0FD0A2F561
:102EF0007C4290420BD002F58062904207D002F5EE
:102F00008062904203D002F57842904203D123F0D0
:102F100070034A681343254A90422AD0B0F1804F8B
:102F200027D0A2F57C42904223D002F580629042E5
:102F30001FD002F5806290421BD002F57842904289
:102F400017D002F57052904213D002F58062904281
:102F50000FD002F5806290420BD0A2F598329042D9
:102F600007D002F58062904203D002F58062904261
:102F700003D123F44073CA68134323F080034A69E2
:102F800013438A68C2620A688262084A904203D088
:102F900002F58062904201D10A690263026842F040
:102FA0000402026001224261036070470000014098
:102FB00040B310B5044690F83D30F3B1022384F8D5
:102FC0003D30214651F8040BFFF78AFF012384F8B6
:102FD000463084F83E3084F83F3084F8403084F83E
:102FE000413084F8423084F8433084F8443084F827
:102FF000453084F83D30002010BD80F83C30FDF7AE
:10300000B5FEDBE70120704740B310B5044690F8E9
:103010003D30F3B1022384F83D30214651F8040BD2
:10302000FFF75EFF012384F8463084F83E3084F8D1
:103030003F3084F8403084F8413084F8423084F8DE
:10304000433084F8443084F8453084F83D30002023
:1030500010BD80F83C30FFF777FEDBE701207047BA
:1030600070B49446066A046A24F001040462846918
:10307000184DA8421CD0B0F1804F19D0164A90428A
:1030800016D002F58062904212D002F58062904222
:103090000ED002F5784290420AD002F5705290426A
:1030A00006D0A2F59432904202D044F0010203E02F
:1030B00024F0030242EA0C0222F0F0021B01DBB210
:1030C000134326F00A0201F00A01114383610162F1
:1030D00070BC7047000001400004004038B590F813
:1030E0003C30012B5ED004460D46012380F83C3075
:1030F0000C2A52D8DFE802F00751515119515151B1
:103100002C5151513E00CB684A6809680068FFF7AE
:10311000A7FF2268936923F00C03936122689369E7
:10312000A9680B439361002038E0CB684A680968BE
:103130000068FFF75AFD2268936923F440639361A6
:1031400022689369A96843EA01239361002025E07E
:10315000CB684A6809680068FFF776FD2268D36982
:1031600023F00C03D3612268D369A9680B43D361B0
:10317000002013E0CB684A6809680068FFF77FFD0C
:103180002268D36923F44063D3612268D369A968B4
:1031900043EA0123D361002000E00120002384F8EA
:1031A0003C3038BD0220FCE710B4846824F47F4C26
:1031B00042EA03220A4342EA0C0282605DF8044BB1
:1031C000704790F83C30012B78D010B504460123AD
:1031D00080F83C30022380F83D300268936823F485
:1031E0007F4323F0770393600B68602B4CD023D888
:1031F000402B54D011D8202B03D00AD80BB1102B60
:1032000005D119462068FFF755FD002028E0012070
:1032100026E0302BF5D0012022E0502B0AD1CA68DD
:1032200049680068FFF7CEFC50212068FFF742FD97
:10323000002015E0012013E0B3F5805F3AD0B3F52C
:10324000005F14D0702B37D1CB684A68896800685A
:10325000FFF7AAFF2268936843F07703936000208A
:10326000012384F83D30002384F83C3010BDCB6846
:103270004A6889680068FFF797FF2268936843F4FB
:10328000804393600020EBE7CA6849680068FFF755
:10329000C7FC60212068FFF70DFD0020E0E7CA6849
:1032A00049680068FFF78EFC40212068FFF702FDA7
:1032B0000020D5E70020D3E70120D1E702207047A6
:1032C00001F01F014FF0010C0CFA01FC036A23EA24
:1032D0000C030362036A8A401343036270470000D1
:1032E00010B504460B46002945D190F83E00C0B207
:1032F00094F84220D2B2012840F0B580012A40F073
:10330000B380002B56D1022284F83E2084F842205C
:103310002168CA6842F00202CA6001221946206888
:10332000FFF7CEFF2368534A934200F09180B3F138
:10333000804F00F08D80A2F57C42934200F088809F
:1033400002F58062934200F0838002F5806293422E
:103350007ED002F5784293427AD002F570529342C1
:1033600076D0A2F59432934272D01A6842F00102EC
:103370001A60002078E004290CD008290ED090F8BB
:103380004100C0B2042B0DD0082B0FD094F845207B
:10339000D2B2B0E790F83F00C0B2F3E790F8400037
:1033A000C0B2EFE794F84320D2B2A4E794F84420E7
:1033B000D2B2A0E7042B2BD0082B2DD0022184F809
:1033C0004110042B2CD0082B33D0022184F8451057
:1033D0000C2B4AD801A151F823F000BF113300088B
:1033E0006B3400086B3400086B3400082734000885
:1033F0006B3400086B3400086B3400083934000863
:103400006B3400086B3400086B3400084534000846
:10341000022184F83F10D4E7022184F84010D0E75D
:10342000022284F843202168CA6842F00402CA607C
:1034300073E7022284F844202168CA6842F0080237
:10344000CA606AE72168CA6842F01002CA6064E78D
:103450009A6802F00702062A09D01A6842F00102AF
:103460001A60002000E0012010BD1046FCE700209B
:10347000FAE700BF0000014038B505460C460C29AC
:103480005DD8DFE801F0075C5C5C285C5C5C2E5C6E
:103490005C5C34000268D36823F00203D36000222E
:1034A00021462868FFF70CFF2B68196A41F21112B8
:1034B000114208D1196A40F24442114203D11A68FC
:1034C00022F001021A60C4B9012385F83E3085F864
:1034D0004230002034E00268D36823F00403D36054
:1034E000DDE70268D36823F00803D360D7E70268FA
:1034F000D36823F01003D360D1E7042C0DD0082C3F
:103500000FD0012385F84130042C0ED0082C11D0A7
:10351000012385F84530002012E0012385F83F3073
:10352000F2E7012385F84030EEE7012385F84330C8
:10353000002005E0012385F84430002000E0012050
:1035400038BD000090F83C20012A3DD010B403465D
:10355000012280F83C20022280F83D200268506859
:10356000946820F0700C086840EA0C0050601A68FB
:10357000164882421AD0B2F1804F17D0A0F57C4095
:10358000824213D000F5806082420FD000F5806047
:1035900082420BD000F57840824207D000F570508F
:1035A000824203D0A0F59430824204D124F08004FA
:1035B000496821439160012283F83D20002083F86F
:1035C0003C005DF8044B704702207047000001404A
:1035D00070477047DFF834D0FEF7E8FC0C480D491F
:1035E0000D4A002302E0D458C4500433C4188C425E
:1035F000F9D30A4A0A4C002301E013600432A242C4
:10360000FBD300F041F8FDF769F870470000022095
:10361000000000205C000020E04200085C00002068
:1036200058030020FEE700000EB410B59DB01FAB9C
:10363000029006906FF000410A48079104910A49F0
:1036400053F8042B0591002402A9006801931B94F0
:1036500000F098F9029B1C701DB0BDE8104003B04B
:10366000704700BF0C0000200802FFFF0244034621
:10367000934200D1704703F8011BF9E7014B18682A
:10368000704700BF0C00002070B50D4B0D4D5B1B4B
:103690009C100026A64209D100F0CAFD0A4D0B4B32
:1036A0005B1B9C100026A64205D170BD55F8043B5B
:1036B00098470136EEE755F8043B98470136F2E7A4
:1036C000D8420008D8420008D8420008DC4200086E
:1036D0007047704738B50546002941D051F8043C81
:1036E0000C1F002BB8BFE41800F0E0F81D4A136867
:1036F00033B9636014602846BDE8384000F0DCB898
:10370000A34208D9206821188B4201BF19685B6861
:1037100009182160EDE71A465B680BB1A342FAD99C
:1037200011685018A0420BD1206801445018834200
:103730001160E0D118685B68536008441060DAE7F4
:1037400002D90C232B60D6E7206821188B4204BFD6
:1037500019685B68636004BF091821605460CAE798
:1037600038BD00BF5403002070B50F4E0C463168C1
:10377000054611B900F0AAFB30602146284600F04A
:10378000A5FB431C03D14FF0FF34204670BDC41C81
:1037900024F00304A042F8D0211A284600F096FB3A
:1037A0000130F2D1EFE700BF500300202DE9F843CC
:1037B000CD1C25F0030508350C2D38BF0C25002D38
:1037C000064601DBA94204D90C2333600020BDE882
:1037D000F883DFF8D48000F069F8D8F800301C4690
:1037E00044BB29463046FFF7BFFF431C044658D16F
:1037F000D8F800402746002F43D1002C4BD0236837
:103800003946304604EB030900F060FB814542D1A4
:1038100021686D1A29463046FFF7A6FF01303AD0DD
:1038200023682B442360D8F800305A6862BBC8F87C
:1038300000700FE02268521B20D40B2A17D961199F
:10384000A342256018BF5960636808BFC8F800101C
:1038500062514B60304600F02FF804F10B00231D3D
:1038600020F00700C21A1CBF1B1AA350AFE7626802
:10387000A3420CBFC8F800205A60EBE723466468F7
:10388000AEE73C467F68B6E71A465B68A342FBD1C9
:1038900000235360DEE70C233360304600F00CF861
:1038A00094E70560D6E700BF540300200148FFF706
:1038B0000FBF00BF4C0300200148FFF70ABF00BF45
:1038C0004C0300202DE9F0478E681F46BE42824619
:1038D0000C469046334653D8B1F90C0010F4906F63
:1038E0002BD065692368096905EB4505A3EB010940
:1038F00005EBD5757B1C6D104B44AB422A4684BF4B
:103900001D462A46430527D511465046FFF74EFF70
:10391000064658B321694A4600F0E8FAA38923F421
:10392000906343F08003A381266165614E44A5EB5B
:1039300009052660A5603E463B461F4620683A467C
:10394000414600F0A9FAA3689B1BA36023683B448F
:1039500023600020BDE8F087504600F0D5FA064607
:103960000028E1D121695046FFF7B4FE0C23CAF8C4
:103970000030A38943F04003A3814FF0FF30E9E713
:103980003E46DBE72DE9F04F98468B891B069DB03C
:1039900007460D46144610D50B6973B94021FFF751
:1039A00005FF2860286130B90C233B604FF0FF30E1
:1039B0001DB0BDE8F08F40236B61002309932023E5
:1039C0008DF82930CDF80C803023DFF89C818DF8FC
:1039D0002A304FF0010923469A4613F8012B0AB109
:1039E000252AF9D1BAEB040B0BD05B4622462946B7
:1039F0003846FFF767FF013000F0A780099A5A4464
:103A000009929AF80030002B00F09F8000234FF0BD
:103A1000FF32CDE905230AF1010A049307938DF8DB
:103A200053301A935446052214F8011B4E48FCF7F4
:103A3000CFFB049AD8B9D00644BF20238DF8533069
:103A4000110744BF2B238DF853309AF800302A2BEE
:103A500015D0079A544600204FF00A0C214611F861
:103A6000013B303B092B4BD9B0B1079214E0A0EBDE
:103A7000080309FA03F313430493A246D2E7039B16
:103A8000191D1B680391002BBBBF5B4242F0020271
:103A900007930793B8BF049223782E2B0AD163783B
:103AA0002A2B32D1039B1A1D1B68039243EAE3734E
:103AB00002340593DFF8C0A0217803225046FCF7BA
:103AC00087FB38B1049BA0EB0A00402282401343DD
:103AD0000134049314F8011B24488DF828100622A1
:103AE000FCF776FB002836D0214B1BBB039B07332A
:103AF00023F0070308330393099B334409936AE7D0
:103B00000CFB02320C460120A8E700230134059388
:103B100019464FF00A0C204610F8012B303A092ABA
:103B200003D9002BC6D00591C4E70CFB0121044644
:103B30000123F0E703AB00932A460E4B04A9384655
:103B4000AFF30080421C0646D6D1AB895B063FF539
:103B50002DAF09982CE703AB00932A46054B04A927
:103B6000384600F079F8EDE79C420008A6420008CC
:103B700000000000C5380008A24200082DE9F04707
:103B8000164698468A680B69DDF820909342B8BFC4
:103B90001346336091F8432007460C460AB10133BF
:103BA00033602368990642BF336802333360256867
:103BB00015F0060506D104F1190AE36832689B1A6C
:103BC000AB4226DC94F843302268003B18BF012347
:103BD00092062BD404F1430241463846C8470130CF
:103BE0001ED02368226903F00603042B02BFE56898
:103BF0003368ED1AA3680CBF25EAE57500259342EA
:103C0000C4BF9B1AED1800261A34B5421AD1002001
:103C100008E00123524641463846C847013003D1E7
:103C20004FF0FF30BDE8F0870135C6E7E1185A1CB8
:103C3000302081F84300224494F8451082F8431064
:103C40000233C7E70123224641463846C8470130C0
:103C5000E6D00136D9E700002DE9FF470F7E0C9E24
:103C6000782F914680460C469A4601F1430207D8C8
:103C7000622F0AD8002F00F0D280582F00F0B780B2
:103C800004F1420684F842703AE0A7F16303152B71
:103C9000F6D801A151F823F0F13C0008053D0008D9
:103CA000813C0008813C0008813C0008813C000800
:103CB000053D0008813C0008813C0008813C00086B
:103CC000813C0008053E00082F3D0008BB3D000870
:103CD000813C0008813C0008273E0008813C000828
:103CE0002F3D0008813C0008813C0008C33D0008CE
:103CF00033681A1D1B68326004F1420684F84230B2
:103D000001239DE033682068191D3160060601D546
:103D10001D6803E04506FBD5B3F90050002D03DA1A
:103D20002D236D4284F8433059480A2310E021685E
:103D30003368080653F8045B02D4490648BFADB2A5
:103D40006F2F5348336059D10823002184F8431062
:103D50006668A660002E05DB21682E4321F0040171
:103D600021604DD01646B5FBF3F103FB1157C75D3B
:103D700006F8017D2F46BB420D46F4D9082B0BD126
:103D80002368DF0708D5236961689942DEBF3023C5
:103D900006F8013C06F1FF36921B2261CDF800A027
:103DA0004B4603AA21464046FFF7E8FE01304CD1BE
:103DB0004FF0FF3004B0BDE8F087236843F02003E4
:103DC00023603448782784F84570236831681F06DB
:103DD00051F8045B02D45F0648BFADB23160D90729
:103DE00044BF43F0200323601DB11023ADE72848F2
:103DF000E9E7236823F020032360F6E70A23A4E71A
:103E00001646BBE7336825686169181D30602E06C9
:103E10001B6801D5196002E06806FBD519800023F4
:103E200023611646BAE733681A1D32601E6862685D
:103E300000213046FCF7CCF908B1801B6060636854
:103E40002361002384F84330A8E7236932464946BA
:103E50004046D0470130ABD023689B0713D4E068BD
:103E6000039B9842B8BF1846A4E70123324649464F
:103E70004046D04701309BD00135E36803995B1A77
:103E8000AB42F2DCEBE7002504F11906F5E700BFD1
:103E9000AD420008BE420008884210B501EB0204A2
:103EA00002D98442234607D8431EA14207D011F805
:103EB000012B03F8012FF8E70244824200D110BD24
:103EC00013F8011D02F8011DF7E7000038B5064D93
:103ED0000023044608462B60FEF772F8431C02D10B
:103EE0002B6803B1236038BD480300200A44914287
:103EF00000F1FF3300D1704710B511F8014B03F802
:103F0000014F9142F9D110BD2DE9F0410746144609
:103F10000D4621B9BDE8F0411146FFF747BC2AB96B
:103F2000FFF7D8FB25462846BDE8F08100F01AF8D7
:103F30008442064602D8B4EB500FF4D821463846E6
:103F4000FFF734FC804608B94546ECE7B442224608
:103F5000294628BF3246FFF7C9FF29463846FFF7F2
:103F6000B9FBF1E751F8043C181F002BBCBF0B58FC
:103F7000C01870472DE9F0478C468E46089E1546BE
:103F800004461946002B40F0D080724547D9B2FA5A
:103F900082F74FB1C7F120030EFA07FC20FA03F3B2
:103FA000BD4043EA0C0CBC404FEA154EA8B2BCFB26
:103FB000FEF8230C0EFB18CC08FB00F943EA0C4377
:103FC000994528D9EB1808F1FF3204D2994502D956
:103FD000A8F102022B44A3EB0903A4B2B3FBFEFC3D
:103FE0000EFB1C330CFB00F044EA0344A04214D93E
:103FF0002C190CF1FF3304D2A04202D9ACF1020318
:104000002C44241A43EA02401EB1FC4000233460D1
:104010007360BDE8F0874246DDE76346F1E7002ABA
:1040200079D0B2FA82F3002B3FD01946C1F12003B8
:1040300002FA01F52EFA03F20EFA01FE20FA03F35A
:1040400043EA0E034FEA154E00FA01F4B2FBFEFC00
:10405000AFB20EFB1C201A0C0CFB07F842EA004220
:1040600090455AD9AA180CF1FF3004D2904502D9D4
:10407000ACF102002A44A2EB08029BB2B2FBFEFCA8
:104080000EFB1C220CFB07F743EA02439F4246D972
:10409000EB180CF1FF3204D29F4202D9ACF10202BC
:1040A0002B44DB1B42EA004202E0AEEB020301229A
:1040B0004FEA154EAFB2B3FBFEFC200C0EFB1C33D7
:1040C0000CFB07F840EA034398452AD9EB180CF19A
:1040D000FF3004D2984502D9ACF102002B44A3EB87
:1040E0000803A4B2B3FBFEFC0EFB1C330CFB07F76A
:1040F00044EA0344A74216D92C190CF1FF3304D229
:10410000A74202D9ACF102032C44E41B43EA00406D
:104110000F46114678E71F2188E76046ABE7624605
:10412000BFE76046DBE76346EFE7734506D916B99C
:10413000002108466DE7C6E9000EF9E7B3FA83F7F8
:1041400087B9734501D3824207D8841A6EEB030303
:1041500001209C461EB900215BE73846FAE7C6E914
:10416000004CF8E7C7F1200CBB4022FA0CF51D43C8
:1041700020FA0CF12EFA0CF30EFA07FE41EA0E01BA
:104180004FEA154900FA07F4B3FBF9F81FFA85FE68
:1041900009FB18300B0C08FB0EFA43EA00439A4562
:1041A00002FA07F240D9EB1808F1FF3004D29A4521
:1041B00002D9A8F102002B44A3EB0A0389B2B3FB96
:1041C000F9F809FB183308FB0EFE41EA03418E455E
:1041D0002CD9691808F1FF3304D28E4502D9A8F111
:1041E0000203294443EA0040A0FB0298A1EB0E0120
:1041F0004145CE46434602D306D14C4504D2B9EBE5
:10420000020E68EB05030138002EA4D0B4EB0E02B9
:1042100061EB030101FA0CFC22FA07F34CEA0303F9
:10422000F940C6E9003196E74046C5E74346D9E77D
:10423000F8B500BFF8BC08BC9E467047F8B500BF93
:08424000F8BC08BC9E46704763
:1042480054696D653A00000054656D703A000000CD
:1042580048756D69646974793A00000025303264E4
:104268003A253032643A25303264000025752E250F
:104278007520000025752E2575000000000000003F
:104288000102030400000000000000000102030412
:1042980006070809232D302B2000686C4C00656642
:1042A800674546470030313233343536373839417F
:1042B8004243444546003031323334353637383995
:0842C800616263646566000099
:0842D00000BFFF7F01000000A8
:0442D800C90200080F
:0442DC00A50200082F
:1042E000C8000100100000000024F40010000020AD
:1042F000000000001002002078020020E0020020F0
:1043000000000000000000000000000000000000AD
:10431000000000000000000000000000000000009D
:10432000000000000000000000000000000000008D
:0C43300000000000000000000000000081
:04000005080035D5E5
:00000001FF
